:020000040800F2
:10000000981B0020A10100081D650008394C00085C
:1000100019650008C90A0008A77B00080000000055
:100020000000000000000000000000004D6F00080C
:10003000BF0C000800000000796C0008E96F0008A0
:10004000BB010008BB010008BB010008BB010008A0
:10005000BB010008BB010008C10C0008BB0100087F
:10006000BB010008CB0C0008D50C0008BB01000840
:10007000C10B0008BB010008BB010008BB01000860
:10008000BB010008BB010008BB010008BB01000860
:10009000CD0A0008BB010008BB010008DF0C000806
:1000A000C1700008BB010008D9700008BB0100083E
:1000B000BB010008F1700008BB010008BB0100088B
:1000C000BB010008BB010008BB010008BB01000820
:1000D000BB010008BD790008BB010008717A000867
:1000E000BB010008BB010008BB010008217100082A
:1000F000BB01000839710008BB010008BB01000802
:10010000BB010008BB010008BB010008BB010008DF
:10011000BB010008BB010008017100081171000853
:10012000BB010008BB010008D10B0008BB0100089F
:10013000BB010008BB010008BB010008BB010008AF
:10014000DD0A0008BB010008BB010008BB01000874
:10015000BB010008BB010008BB010008FD7A0008D4
:10016000BB010008BB010008BB010008BB0100087F
:10017000BB010008BB010008BB0100080000000033
:10018000BB010008BB010008DFF810D000F08EF8BA
:100190000048004795880008AFF30080981B0020B6
:1001A0000648804706480047FEE7FEE7FEE7FEE711
:1001B000FEE7FEE7FEE7FEE7FEE7FEE7A5700008C4
:1001C000890100082DE9F05F0546002092469B4614
:1001D00088460646814640241BE02846414647465D
:1001E000224600F053F853465A46C01A914110D3A4
:1001F00011461846224600F03AF82D1A67EB01081E
:100200004F4622460120002100F031F817EB00098B
:100210004E41201EA4F10104DFDC484631462A4647
:100220004346BDE8F09F40EA01039B0703D009E085
:1002300008C9121F08C0042AFAD203E011F8013BD2
:1002400000F8013B521EF9D27047D2B201E000F82B
:10025000012B491EFBD270470022F6E710B513466A
:100260000A4604461946FFF7F0FF204610BD202A33
:1002700004DB203A00FA02F1002070479140C2F1FD
:10028000200320FA03F3194390407047202A04DB2F
:10029000203A21FA02F00021704721FA02F3D040FF
:1002A000C2F120029140084319467047064C074DA1
:1002B00006E0E06840F0010394E807009847103436
:1002C000AC42F6D3FFF764FFCC940008FC9400081E
:1002D00055494A6822F440324A604A6843681A43E2
:1002E0004A600268526822F4807203685A600268A9
:1002F0005368026943EA022203685A60026852683E
:1003000022F0407203685A600268526883681A4398
:1003100003685A600268926822F4006203689A6077
:1003200002689268C3681A4303689A603F4B826A06
:100330009A4218D00268926822F0706203689A604C
:1003400002689268836A1A4303689A600268926836
:1003500022F0405203689A6002689268C36A1A43A6
:1003600003689A600BE00268926822F0706203688A
:100370009A600268926822F0405203689A600268AC
:10038000926822F0020203689A6002689368027E13
:1003900043EA420203689A602022125CA2B102681A
:1003A000526842F4006203685A600268526822F49C
:1003B000604203685A6002685368426A521E43EA08
:1003C000423203685A6005E00268526822F4006213
:1003D00003685A600268D26A22F470020368DA6223
:1003E0000268D36A828B521E43EA02520368DA62C1
:1003F0000268926822F4007203689A600268936847
:1004000090F8302043EA422203689A6002689268BA
:1004100022F4806203689A6002689368426943EA42
:10042000822203689A607047002301400100000F98
:1004300070B504460D46164695ED023AF0EE432A95
:1004400095ED013AB0EE432A95ED003AF0EE431AED
:1004500094ED023AB0EE431A94ED013AF0EE430AFD
:1004600094ED003AB0EE430A4D4805F0D7FE4C48F3
:1004700090ED001A21EE011AD0ED011A90ED012A3B
:1004800001EE821AF7EE001AB0EE002A52EE011ABF
:10049000F0EE610A90ED001AD0ED031A21EE211A58
:1004A000D0ED011A90ED022A01EE821AF0EE001A48
:1004B00021EE211AB0EE410A07F066FC394880EDC2
:1004C000000A3748D0ED010A90ED031A60EE810A68
:1004D00090ED001AD0ED021A41EE610AB8EE001A52
:1004E00060EE810AB0EE600A07F0B8FB2D4880ED9F
:1004F000010A2B4890ED001A21EE011AD0ED031AE3
:1005000090ED032A01EE821AF7EE001AB0EE002AEF
:1005100052EE011AF0EE610A90ED001AD0ED011AC8
:1005200021EE211AD0ED021A90ED032A01EE821A73
:10053000F0EE001A21EE211AB0EE410A07F024FC79
:10054000184880ED020A90ED000ADFED170A20EE50
:10055000200ADFED160A80EE201A154880ED001AF9
:10056000104890ED010ADFED100A20EE200ADFEDC1
:100570000F0A80EE201A0E4880ED011A094890ED0E
:10058000020ADFED090A20EE200ADFED080A80EEFC
:10059000201A074880ED021A04F010FE70BD00001A
:1005A000A00000204C10002000003443DB0F494025
:1005B0005810002010B501221021024802F06BF8FB
:1005C00010BD00000000024010B5002210210248BA
:1005D00002F061F810BD00000000024010B50122D9
:1005E0001146024802F057F810BD00000004024016
:1005F00010B500220121024802F04DF810BD0000A4
:100600000004024070B506460C461546FFF7DCFFB5
:1006100046F0800000F048FA552000F045FA06E068
:10062000552000F041FA2070641C681EC5B2002DF0
:10063000F6D1FFF7BFFF70BD70B505460C46FFF75A
:10064000C3FF284600F030FA204600F02DFAFFF7ED
:10065000B1FF70BD70B586B004460D460020039012
:1006600004900590009001900290002634E09DEDEA
:10067000030AD4ED000A30EE200A8DED030A9DED49
:10068000040AD4ED010A30EE200A8DED040A9DED36
:10069000050AD4ED020A30EE200A8DED050A9DED23
:1006A000000AD5ED000A30EE200A8DED000A9DED1E
:1006B000010AD5ED010A30EE200A8DED010A9DED0B
:1006C000020AD5ED020A30EE200A8DED020A0A2058
:1006D00001F0CCFD701C86B2B6F57A7FC7DB9DEDCC
:1006E000030ADFED200A80EE201A1F4880ED001A71
:1006F0009DED040ADFED1B0A80EE201A80ED011A41
:100700009DED050ADFED170A80EE201A80ED021A32
:100710009DED000ADFED130A80EE201A134880EDEC
:10072000001A9DED010ADFED0F0A80EE201A80ED20
:10073000011A9DED020ADFED0B0A80EE201A80ED12
:10074000021A01210A4807F08CFF032206490848D3
:1007500007F0F8FF0322054905480C3007F0F2FFC7
:1007600006B070BD00007A44101000201C1000205C
:1007700000000C0870B506460C461546FFF738FF1A
:1007800046F0800000F090F906E0552000F08CF96A
:100790002070641C681EC5B2002DF6D1FFF71EFF45
:1007A00070BD70B505460C46FFF722FF284600F0E5
:1007B0007BF9204600F078F9FFF710FF70BD0000CC
:1007C00010B5B6217E20FFF737FF642001F04EFD03
:1007D000AB214020FFF730FF00214120FFF72CFF25
:1007E00008215320FFF728FF04215820FFF724FF9A
:1007F00000217C20FFF720FF0A2001F037FD0421B3
:100800007D20FFF719FF0A2001F030FDB6211420EA
:10081000FFF7C7FF642001F029FD00210F20FFF73B
:10082000C0FF82211020FFF7BCFF00211120FFF73D
:10083000B8FF80211520FFF7B4FF00211620FFF735
:10084000B0FF01211820FFF7ACFF0322054906483D
:1008500007F06EFF0322054903480C3007F068FFDC
:1008600010BD00001010002000000C081C1000201B
:1008700000B52DED028B83B0062201A91220FFF7EF
:10088000C1FE9DF804009DF8051040EA012000B269
:1008900008EE100AB8EEC80ADFED170A20EE200AAB
:1008A000164880ED000A9DF806009DF8071040EA02
:1008B000012000B208EE100AB8EEC80ADFED0E0AF9
:1008C00020EE200A0D4880ED010A9DF808009DF8F1
:1008D000091040EA012000B208EE100AB8EEC80A7A
:1008E000DFED050A20EE200A044880ED020A03B07D
:1008F000BDEC028B00BD00000F5C6B3A04100020C1
:1009000000B52DED028B83B0062201A90220FFF76E
:1009100031FF9DF804009DF8051040EA012000B267
:1009200008EE100AB8EEC80ADFED450A20EE200AEC
:10093000444880ED000AB8EEC80ADFED430A20EE15
:10094000200A424880ED000A9DF806009DF8071035
:1009500040EA012000B208EE100AB8EEC80ADFED46
:10096000380A20EE200A374880ED010AB8EEC80A9E
:10097000DFED350A20EE200A344880ED010A9DF8AB
:1009800008009DF8091040EA012000B208EE100AA4
:10099000B8EEC80ADFED2A0A20EE200A294880EDC9
:1009A000020AB8EEC80ADFED280A20EE200A27481E
:1009B00080ED020A234890ED000A2548D0ED000A98
:1009C00030EE600A234880ED000A1E4890ED010ACF
:1009D0001F48D0ED010A30EE600A1E4880ED010A82
:1009E000184890ED020A1A48D0ED020A30EE600A6B
:1009F000184880ED020A154890ED000A1648D0ED1F
:100A0000000A30EE600A154880ED000A0F4890EDAC
:100A1000010A1148D0ED010A30EE600A0F4880ED5E
:100A2000010A0A4890ED020A0B48D0ED020A30EEA6
:100A3000600A0A4880ED020A03B0BDEC028B00BDDB
:100A400058A08B3AEC0F002000007A3DF80F0020F0
:100A500010100020281000201C100020341000204E
:100A600038B5022269462220FFF7CCFD9DF8000030
:100A7000C0009DF8011040EA6114B4F5806F02DBFC
:100A8000A4F5006004B200EE104AF8EEC00AB4EE1D
:100A9000001AB3EE070A00EE810A024880ED000A50
:100AA00038BD00008800002001B582B04FF47A7094
:100AB000012301AA02A90090024802F0E5FE9DF878
:100AC00004000EBD5C02002000BFFEE710B5024826
:100AD00000F0F2FE10BD000064010020704700002D
:100AE0007CB504460D46164600202B46224640F2B1
:100AF000FF11CDE90060024800F028F87CBD00003D
:100B0000640100202DE9FC4104460D4616461F46AF
:100B10002B4622464FF400710348CDE9006700F0F0
:100B200015F8BDE8FC810000640100207CB5044696
:100B30000D46002000902B46224640F2FF11019006
:100B4000014800F003F87CBD8C0100202DE9F04342
:100B500089B081460E4614461D46DDE9107803969D
:100B600000200590069008200790200A8DF80400C8
:100B7000E0B28DF80500280A8DF80600E8B28DF87D
:100B80000700380A8DF80800F8B28DF809004FEA1E
:100B900018208DF80A0008F0FF008DF80B006B4656
:100BA00001AA03A9484600F08CFC09B0BDE8F08317
:100BB0000020024909684862704700004C03002089
:100BC00010B5024801F0BCF910BD00006C0F002008
:100BD00010B5024801F0B4F910BD00000C0F002060
:100BE0000146087810381823B0FBF3F20848805CFF
:100BF000C865032A05D908686FF30900001D8865D8
:100C000003E008686FF309008865886D704700008D
:100C100086910008014600208A6A8B69CBB932B1FF
:100C2000012A0DD0022A03D0032A10D10EE000BF02
:100C3000CB6A03F08073B3F1807F00D1012007E01D
:100C4000CB6AB3F1C07F00D1012001E000E000BF1A
:100C500034E08B69B3F5005F1AD132B1012A07D0B5
:100C6000022A03D0032A11D10AE000BF01200EE0BE
:100C7000CB6A03F08073B3F1807F00D1012006E0DE
:100C8000CB6AB3F1C07F00D1012000E000BF15E0C6
:100C900032B1012A05D0022A04D0032A0CD103E084
:100CA00000BF00BF012008E0CB6A03F08073B3F1FE
:100CB000807F00D1012000E000BF00BF7047704777
:100CC00010B5012001F0D0FB10BD10B5082001F0D7
:100CD000CBFB10BD10B5102001F0C6FB10BD10B548
:100CE000202001F0C1FB10BD72B600BFFEE700007E
:100CF00010B5002201B909E0012901D10A0205E07D
:100D0000022901D10A0201E04FF440720E4B1B6828
:100D100023F440730C4C236023461B681343236069
:100D200023461B6823F0F803236023461B68022434
:100D300044EAC0042343044C236023461B6843F465
:100D40008033236010BD0000103C02401C48006846
:100D500000F40070B0B11A48006820F4007018491F
:100D6000086000BF0846006840F40060086008465C
:100D7000006820F40060086000BF0846006840F486
:100D8000007008600E48006800F48060B0B10C4844
:100D9000006820F480600A49086000BF08460068C7
:100DA00040F4805008600846006820F480500860D5
:100DB00000BF0846006840F480600860704700008B
:100DC000003C02400A4A126822F44072084B1A6042
:100DD0001A46126842F004021A601A4612684FF46A
:100DE000803343EA00231A43014B1A607047000026
:100DF000103C0240074A126822F44072054B1A6008
:100E00001A4612681A601A46126842F001021A6005
:100E100001707047103C024010B50D49096821F47B
:100E200040710B4C21602146096841F440712160FA
:100E30002146096841F001012160026000BF00BF46
:100E400000BFBFF36F8F00BF00BF00BF436010BD86
:100E5000103C0240084A126822F44072064B1A60A5
:100E60001A46126842F480721A601A46126842F0FA
:100E700001021A6001807047103C0240084A126863
:100E800022F44072064B1A601A46126842F400724D
:100E90001A601A46126842F001021A600160704737
:100EA000103C02402348006800F0100040B1224886
:100EB000C06940F010002049C86110201D49086039
:100EC0001C48006800F0200040B11B48C06940F099
:100ED00008001949C86120201649086015480068B3
:100EE00000F0400040B11448C06940F004001249CD
:100EF000C86140200F4908600E48006800F080007B
:100F000040B10D48C06940F002000B49C861802023
:100F1000084908600748006800F0020040B1064830
:100F2000C06940F020000449C861022001490860FE
:100F3000704700000C3C0240CC0F002070B5044606
:100F4000002500201449C86101F0ACFB054609E00A
:100F5000601C38B124B101F0A5FB401BA04201D9AF
:100F6000032070BD0D48006800F480300028EFD1E8
:100F70000A48006800F0010010B10120074908602C
:100F80000648006800F0F20018B1FFF78BFF01205F
:100F9000E7E70020E5E70000CC0F00200C3C024012
:100FA00030B5034609E013F8014B82EA0400C0B2F1
:100FB000054D35F8100080EA2222081EA1F101013A
:100FC000F1D1104630BD0000AA92000830B50346AA
:100FD00005E013F8010B80EA02040448025D081ED4
:100FE000A1F10101F5D1104630BD0000A791000824
:100FF00038B502460020009000BF92F83C0001285E
:1010000001D1022038BD012082F83C0000BF0868F1
:10101000092816D91068C0680C780A3C04EB44050E
:101020000724AC40A0431468E0600C780A3C04EB51
:1010300044048868A0401468E46820431468E060B1
:1010400013E0106800690C7804EB44050724AC40F9
:10105000A043146820610C7804EB44048868A04025
:10106000146824692043146820614868072817D24F
:101070001068406B0C79641E04EB84051F24AC409F
:10108000A04314686063088880B20C79641E04EB86
:101090008404A0401468646B20431468606331E0EA
:1010A00048680D2817D21068006B0C79E41F04EB18
:1010B00084051F24AC40A04314682063088880B2D4
:1010C0000C79E41F04EB8404A0401468246B2043D3
:1010D0001468206316E01068C06A0C790D3C04EBBC
:1010E00084051F24AC40A0431468E062088880B2E5
:1010F0000C790D3C04EB8404A0401468E46A20439E
:101100001468E062194B1A4C1068A04206D10868B6
:10111000122803D1586840F480005860144C1068BD
:10112000A0421CD10868102802D00868112816D1E6
:10113000586840F400005860086810280FD10D4826
:1011400000680D4CB0FBF4F000EB80004000009014
:1011500002E00098401E009000980028F9D100BFDE
:10116000002082F83C0000BF00BF4BE70023014095
:10117000002001401C00002040420F00014608688A
:10118000C06C704770B5044600250CB9012070BDD5
:101190001549A06A884200D000BF206C30B92046B3
:1011A00000F024F80020606484F83C00206C00F01B
:1011B000100088B9206C20F4885040F002002064B0
:1011C0002046FFF785F800206064206C20F00200C4
:1011D00040F00100206400E0012500BF002084F8F9
:1011E0003C0000BF2846D2E70100000F10B586B0D2
:1011F0000446142101A8FFF72FF8234920688842EC
:101200000FD100BF002000902048006840F480709B
:101210001E4908600846006800F48070009000BF16
:101220002FE01B49206888422BD100BF002000908E
:101230001648006840F48060144908600846006859
:1012400000F48060009000BF00BF00BF002000904D
:101250000E481438006840F020000C49143908602A
:101260000846006800F02000009000BF00BF08158D
:101270000190032002900020039001A9054801F08D
:1012800001F906B010BD00000020014044380240C2
:10129000002201400014024070B504460D460026AD
:1012A0002068806800F48060B0F5806F11D12068FC
:1012B000806800F48070B0F5807F0AD1206C40F027
:1012C0002000206400BF002084F83C0000BF012003
:1012D00070BD01F0E7F9064612E0681C80B125B147
:1012E00001F0E0F9801BA8420AD9206C40F004000C
:1012F000206400BF002084F83C0000BF0320E7E723
:101300002068006800F002000228E6D16FF01200A9
:1013100021680860206C40F40070206420688068B8
:1013200000F04050B8B9207EA8B92068C06A00F427
:10133000700020B12068806800F4806058B9206C8B
:1013400020F480702064206C00F4805018B9206C68
:1013500040F0010020640020BAE7000008B5014613
:101360000020009000BF91F83C00012801D102202C
:1013700008BD012081F83C0000BF0868806800F0CB
:101380000100A0B90868806840F001000B6898600F
:101390003B4800683B4BB0FBF3F000EB4000009093
:1013A00002E00098401E009000980028F9D10868DB
:1013B000806800F0010000285FD0086C40F20163F3
:1013C000984340F4807008640868406800F48060C6
:1013D00028B1086C20F4005040F480500864086C78
:1013E00000F48050B0F5805F04D1486C20F0060016
:1013F000486401E00020486400BF002081F83C0000
:1014000000BF214A6FF022000B681860506800F09E
:101410001F0018BB1D4B0868984213D01C4B08686E
:10142000984204D1101D006800F01F0050B1194B04
:101430000868984221D11448001D006800F01F0080
:1014400010281AD20868806800F0405028B908684F
:10145000806840F080400B6898600EE00B4B086895
:1014600098420AD10868806800F0405028B908689E
:10147000806840F080400B689860002078E70000AA
:101480001C00002040420F000023014000200140CA
:10149000002101400022014010B5024692F82030A0
:1014A000012B01D0022B06D1106840690843146853
:1014B0006061002010BD506A40F48020506201201D
:1014C000F8E7F0B504460D461E4694F820702068F3
:1014D0008368A86800B900E000BF012F01D0022F87
:1014E0007CD103F0806030B903F0006018B903F0DC
:1014F0008050002873D0C3F30161022905D9606AC6
:1015000040F4000060620120F0BD0120884030609E
:10151000A86860B9B5F800C0E86840EA4C5C20688B
:1015200000F5C07000EB0110C0F800C00FE0D5E975
:1015300001C040EACC00D5F80CC040EA0C00D4F859
:1015400000C00CF5C07C0CEB011CCCF80000D5F8F9
:1015500010C0206800F5C07000EB0110C0F804C096
:10156000287D01280ED1206800F5C07000EB011025
:10157000406840F4807C206800F5C07000EB0110EA
:10158000C0F804C0D079000692F806C040EA0C40CA
:1015900092F805C040EA0C2C10794CEA000C206847
:1015A00000F5C07000EB0110C0F80CC0D078000648
:1015B00092F802C040EA0C4092F801C040EA0C20C8
:1015C00092F800C040EA0C00D4F800C00CF5C07CD2
:1015D0000CEB011CCCF80800206801E016E00FE0DD
:1015E00000F5C07000EB0110006840F0010C2068AD
:1015F00000F5C07000EB0110C0F800C0002083E7C8
:10160000606A40F40010606201207DE7606A40F487
:1016100080206062012077E7F0B504460A46216821
:1016200094F82050012D01D0022D7ED1424901F5C0
:101630000071086840F001000860086820F47C50E0
:1016400008600868566A40EA06200860107D00F0CD
:101650001F06012000FA06F3C8699843C861A1F586
:101660000071D069C8B9D1F80C029843C1F80C02D6
:10167000908880B2968940EA064601F51070576955
:1016800040F83760108880B2168940EA064601F5B6
:101690001070576900EBC7004660D069012819D166
:1016A000D1F80C021843C1F80C02908880B2168859
:1016B00040EA064601F51070576940F83760908996
:1016C00080B2168940EA064601F51070576900EBB2
:1016D000C7004660906928B9D1F804029843C1F860
:1016E000040204E0D1F804021843C1F804021069AE
:1016F00028B9D1F814029843C1F8140204E0D1F8D3
:1017000014021843C1F81402106A012804D1D1F858
:101710001C021843C1F81C02D1F8000220F001009D
:10172000C1F800020020F0BDFFE7606A40F48020AD
:1017300060620120F7E7000000640040704770B568
:10174000044694F82050012D01D0022D7DD151B9CD
:101750002068C06800F0030080B9606A40F400109F
:101760006062012070BD2068006900F0030028B9A4
:10177000606A40F4001060620120F3E7206800F521
:10178000D87000EB0110006800F0040090609068D1
:1017900040B9206800F5D87000EB01100068400DDA
:1017A000106007E0206800F5D87000EB01100068B9
:1017B000C0085060206800F5D87000EB0110006888
:1017C00000F00200D060206800F5D87000EB011036
:1017D000406800F00F001061206800F5D87000EB41
:1017E0000110406800F47F40000A9061206800F515
:1017F000D87000EB01104068000C5061206800F5C3
:10180000D87000EB011080681870206800F5D8705F
:1018100000EB0110806800F47F40000A58702068D7
:1018200000F5D87000EB0110806800F47F00000C18
:101830009870206800F5D87000EB01108068000EE9
:10184000D870206800F5D87000E02FE000EB0110A0
:10185000C0681871206800F5D87000EB0110C068EE
:1018600000F47F40000A5871206800F5D87000EB42
:101870000110C06800F47F00000C9871206800F52A
:10188000D87000EB0110C068000ED87131B9206823
:10189000C06840F020002668F06005E0206800691C
:1018A00040F020002668306100205BE7606A40F469
:1018B00080206062012055E72DE9F05F0446002595
:1018C000206846692068D0F80490206887682068FE
:1018D000D0F80CA02068D0F810B02068D0F818809C
:1018E00006F00100002855D007F00100C0B101202A
:1018F0002168886007F0020018B1204600F005FB5F
:101900000EE007F0040010B145F4006508E007F0B0
:10191000080010B145F4805502E0204600F0F4FACA
:1019200007F48070C8B14FF480702168886007F4B4
:10193000007018B1204600F0EAFA0EE007F480606B
:1019400010B145F4005508E007F4006010B145F40B
:10195000804502E0204600F0D9FA07F48030C8B193
:101960004FF480302168886007F4003018B12046B9
:1019700000F0CFFA0EE007F4802010B145F40045E6
:1019800008E007F4002010B145F4803502E020465D
:1019900000F0BEFA06F0080038B10AF0100020B1DD
:1019A00045F4007510202168C86006F0040040B1BD
:1019B0000AF0080028B108202168C860204600F01D
:1019C0000DFA06F0020038B12068C06800F003008C
:1019D00010B1204600F004FA06F0400038B10BF0D8
:1019E000100020B145F4806510202168086106F0E0
:1019F000200040B10BF0080028B1082021680861E0
:101A0000204600F04FFA06F0100038B12068006957
:101A100000F0030010B1204600F045FA06F4003053
:101A200040B109F0100028B110202168486020461C
:101A300000F03AFA06F4803040B109F0080028B10D
:101A4000082021684860204600F064FA06F400404F
:101A500088B309F0040078B306F4807020B108F070
:101A6000010008B145F0010506F4007020B108F04E
:101A7000020008B145F0020506F4806020B108F0CC
:101A8000040008B145F0040506F40060A0B108F0B8
:101A9000700088B108F07000402817D006DC1028CC
:101AA0000BD020280CD0302819D10CE0502810D0B1
:101AB000602814D110E01DE019E045F008050FE0A2
:101AC00045F010050CE045F0200509E045F0400523
:101AD00006E045F0800503E045F4807500E000BFB6
:101AE00000BF2068806920F07000216888610420B0
:101AF000216848602DB1606A284360622046FFF784
:101B00001DFEBDE8F09F70B504460CB9012070BD04
:101B100094F8200010B9204600F0B0F82068006862
:101B200020F002002168086000F0BCFD05460DE0D1
:101B300000F0B8FD401B0A2808D9606A40F4003064
:101B40006062052084F820000120E0E720684068FA
:101B500000F002000028EBD12068006840F001008E
:101B60002168086000F09EFD05460DE000F09AFD3A
:101B7000401B0A2808D9606A40F4003060620520E2
:101B800084F820000120C2E72068406800F00100CE
:101B90000028EBD0207E012806D12068006840F0A4
:101BA00080002168086005E02068006820F080005F
:101BB00021680860607E012806D12068006840F036
:101BC00040002168086005E02068006820F04000BF
:101BD00021680860A07E012806D12068006840F0D6
:101BE00020002168086005E02068006820F02000DF
:101BF00021680860E07E012806D12068006820F096
:101C000010002168086005E02068006840F01000BE
:101C100021680860207F012806D12068006840F014
:101C200008002168086005E02068006820F00800CE
:101C300021680860607F012806D12068006840F0B4
:101C400004002168086005E02068006820F00400B6
:101C500021680860D4E902010843216908436169E9
:101C600008436168491E08432168C861002060621A
:101C7000012084F82000002049E7000010B586B05C
:101C80000446142101A8FEF7E7FA4E49206888426D
:101C900041D14D480068401C4B4908600846006827
:101CA00001280FD100BF002000904848006840F094
:101CB0000070464908600846006800F00070009017
:101CC00000BF00BF00BF00200090404810380068EF
:101CD00040F008003D49103908600846006800F0EF
:101CE0000800009000BF00BF032001900220029076
:101CF00000200390032004900920059001A9344896
:101D000000F0C0FB00221146142001F005F9142058
:101D100001F0F2F854E02F492068884250D100BF0A
:101D2000002000902948006840F080602749086042
:101D30000846006800F08060009000BF00BF2248A5
:101D40000068401C204908600846006801280FD13F
:101D500000BF002000901D48006840F000701B4943
:101D600008600846006800F00070009000BF00BFE7
:101D700000BF0020009015481038006840F00200B5
:101D80001249103908600846006800F0020000900F
:101D900000BF00BF6020019002200290002003904D
:101DA000032004900920059001A90B4800F06AFB6C
:101DB00000221146402001F0AFF8402001F09CF8CD
:101DC00006B010BD006400400C0000204038024006
:101DD000000C024000680040000402407047000010
:101DE00030B589B005466B4602AA00212846FFF7A8
:101DF000A6FC264885422FD10298A0F20120072890
:101E000028D2DFE800F00405060711121C0000BF0D
:101E100000BF00BF0298401EC4B21D4901EBC400C0
:101E2000694605F089FE16E000BF0298401FC4B263
:101E3000184901EBC400694605F07EFE0BE06946D7
:101E40001448103005F078FE12491031124805F0A0
:101E500087FE00E000BF16E01048854213D10298CB
:101E6000A0F2052010B101280BD100E000BF0298BC
:101E7000401FC4B20A4901EBC400694605F05CFE8C
:101E800000E000BF00BF09B030BD000064010020C9
:101E90003013002050130020781300208C01002004
:101EA0006813002070477047704770B5044694F877
:101EB0002000012822D1022084F820002068006838
:101EC00020F001002168086000F0ECFB05460DE001
:101ED00000F0E8FB401B0A2808D9606A40F4003093
:101EE0006062052084F82000012070BD20684068F1
:101EF00000F001000028EBD16062F6E7606A40F470
:101F0000002060620120F0E770477047704770471B
:101F1000704770477047014691F83500022803D09A
:101F20008020486501207047052081F83500086849
:101F3000006820F001000A6810600020F3E700004C
:101F4000F8B50446002000908C4800684FF4165104
:101F5000B0FBF1F7A56D2E6894F85C10082088405E
:101F6000304098B12068006800F0040070B120682B
:101F7000006820F004002168086094F85C100820D4
:101F80008840A860606D40F00100606594F85C10C6
:101F900001208840304068B12068406900F080002E
:101FA00040B194F85C1001208840A860606D40F05A
:101FB0000200606594F85C1004208840304068B1ED
:101FC0002068006800F0020040B194F85C10042022
:101FD0008840A860606D40F00400606594F85C1073
:101FE00010208840304078B32068006800F0080076
:101FF00050B394F85C1010208840A86020680068F6
:1020000000F4802080B12068006800F4002028B926
:10201000206CC8B12046216C884715E0A06C98B1AF
:102020002046A16C88470FE02068006800F48070AB
:1020300028B92068006820F0080021680860206C3A
:1020400010B12046216C884794F85C10202088400D
:102050003040002865D02068006800F0100000289B
:102060005FD094F85C1020208840A86094F8350078
:10207000052828D12068006820F016002168086033
:102080002068406920F0800021684861206C08B910
:10209000A06C28B12068006820F008002168086062
:1020A00094F85C103F208840A86000BF002084F8AE
:1020B000340000BF012084F83500206D10B12046A7
:1020C000216D8847F8BD2068006800F4802080B149
:1020D0002068006800F4002028B9606C10B1204628
:1020E000616C88471DE0E06BD8B12046E16B884702
:1020F00017E02068006800F4807068B92068006804
:1021000020F010002168086000BF002084F834002F
:1021100000BF012084F83500E06B10B12046E16B70
:102120008847606D38B3606D00F00100F0B10520A4
:1021300084F835002068006820F0010021680860FC
:1021400000BF0098401C0090B84200D905E020680C
:10215000006800F001000028F3D100BF00BF00209C
:1021600084F8340000BF012084F83500E06C10B121
:102170002046E16C884700BFA4E700001C00002057
:102180002DE9F0410446002500F08CFA074614B909
:102190000120BDE8F081606A00B100BF00BF0020EF
:1021A00084F8340000BF022084F8350020680068FD
:1021B00020F00100216808600AE000F073FAC01BFB
:1021C000052805D920206065032084F83500E0E764
:1021D0002068006800F001000028EED12068056842
:1021E00021480540D4E901010843E1680843216919
:1021F000084361690843A1690843E1690843216A0A
:1022000008430543606A042803D1D4E90B0108435D
:102210000543206805602068456925F00705606A68
:102220000543606A04280DD1A06A0543E06A48B1FD
:102230002046FEF7EFFC28B140206065012084F8BD
:102240003500A6E7206845612046FEF7C9FC064632
:1022500094F85C103F208840B06000206065012049
:1022600084F83500002094E73F8010F070B50446F4
:1022700000F018FA06462546681C10B1044800789C
:10228000054400BF00F00EFA801BA842FAD370BDCF
:10229000180000202DE9F04104460E4601270025D4
:1022A00000BF2548007E012802D10220BDE8F08150
:1022B00001202149087600BF4CF25030FEF73EFE67
:1022C0000746002F31D1401E3060206801280FD111
:1022D000207C6168FEF776FD4CF25030FEF72EFE52
:1022E00007461648006820F00400144908601AE008
:1022F000A56812E0217C2846FEF7FAFC4CF250302B
:10230000FEF71CFE07460D48006820F0FA000B4956
:1023100008600FB1356005E06D1CD4E90210084477
:10232000A842E7D800BFFEF711FD00BF0020024918
:10233000087600BF3846B9E7CC0F0020103C0240B9
:102340000348006840F000400149086000207047E1
:10235000103C02402DE9F04106460F4614461D464A
:102360004FF0010800BF1F48007E012802D1022063
:10237000BDE8F08101201B49087600BF4CF25030C7
:10238000FEF7DCFD8046B8F1000F23D126B9E1B29B
:102390003846FEF72FFD12E0012E04D1A1B23846D7
:1023A000FEF758FD0BE0022E04D121463846FEF719
:1023B00065FD04E022462B463846FEF72DFD4CF223
:1023C0005030FEF7BBFD80460748006820F0010052
:1023D0000549086000BF00200249087600BF40465A
:1023E000C6E70000CC0F0020103C02400020094945
:1023F000096801F0004159B10749064A0C3A1160D9
:10240000064911600349096801F0004101B101204A
:1024100070470000103C024023016745AB89EFCDB7
:1024200010B50446202C07D1FEF76AFA0A4A0B4978
:102430000B48FDF7FDFF0EE0102C02D1FEF718FA55
:1024400009E0082C02D102F02FFF04E0012C02D198
:1024500001200449087010BD401000200410002025
:10246000281000208400002010B5044604480068AD
:10247000204020B1024804602046FFF7D1FF10BD84
:10248000143C0140F8B502460B460025002400200C
:102490000021DCE0012606FA01F51E6806EA0504C3
:1024A000AC4273D15E68012E08D05E68022E05D062
:1024B0005E68112E02D05E68122E13D190684F0014
:1024C0000326BE40B0434F00DE68BE4030439060FC
:1024D000506801268E40B0431E79C6F300168E4028
:1024E00030435060D0684F000326BE40B0434F00D9
:1024F0009E68BE403043D0605E68022E02D05E68A7
:10250000122E13D1CF0802F1200656F827004E07ED
:10251000F70E0F26BE40B0434F07FF0E1E69BE40A8
:102520003043CF0802F1200646F8270010684F001C
:102530000326BE40B0431E7906F003064F00BE409E
:10254000304310605E6806F08056B6F1805F7DD142
:1025500000BF00260096404E366846F480463E4F47
:102560003E603E46366806F48046009600BF00BFD7
:102570003A4E8F0856F827008E07370F0F26BE40B9
:10258000B043374EB24202D1002624E05EE0354E21
:10259000B24201D101261EE0334EB24201D10226E1
:1025A00019E0324EB24201D1032614E0304EB2425D
:1025B00001D104260FE02F4EB24201D105260AE0D8
:1025C0002D4EB24201D1062605E02C4EB24201D179
:1025D000072600E008268F073F0FBE4030431F4EFE
:1025E0008F0846F82700264E3068A0435E6806F440
:1025F0008036B6F5803F00D12043214E3060361D35
:102600003068A0435E6806F40036B6F5003F00D19E
:1026100020431B4E361D3060361D3068A0435E6877
:1026200006F48016B6F5801F00D12043144E0836FC
:102630003060361D3068A0435E6806F40016B6F5BB
:10264000001F00D120430E4E0C363060491C10296B
:10265000FFF420AFF8BD00004438024008380140C4
:10266000000002400004024000080240000C02404A
:10267000001002400014024000180240001C0240FA
:10268000003C014042690A408A4202D10A04826148
:1026900000E0816170470AB1816101E00B04836150
:1026A00070470000014800687047000010000020DB
:1026B00070B504460CB9012070BD94F83D0028B9EE
:1026C000002084F83C00204600F006FB242084F81B
:1026D0003D002068006820F0010021680860206843
:1026E000006840F40040216808602068006820F419
:1026F00000402168086000F029FD05465C496068DB
:10270000884206D85B48854201D2012007E00020BC
:1027100005E05948854201D2012000E0002001284F
:1027200000D1C9E75548B5FBF0F62068406820F0B5
:102730003F003043216848604D496068884201D8B5
:10274000701C07E04FF4967070434FF47A71B0FB41
:10275000F1F0401C2168096A21F03F01084321681B
:10276000086243496068884214D8681E616849005D
:10277000B0FBF1F0401CC0F30B00042801D2042090
:102780003DE0681E61684900B0FBF1F0401CC0F3F9
:102790000B0034E0A06838B9681E616801EB4101A4
:1027A000B0FBF1F0401C0AE0681E616801EBC10259
:1027B00002EB0111B0FBF1F0401C40F48040C0F38B
:1027C0000B0008B901201AE0A06848B9681E6168CA
:1027D00001EB4101B0FBF1F0401CC0F30B000CE039
:1027E000681E616801EBC10202EB0111B0FBF1F060
:1027F000401CC0F30B0040F4804040F400402168CE
:10280000C9694CF6FF72914308432168C861D4E955
:10281000070108432168096821F0C00108432168C5
:102820000860D4E9031008432168896848F2FF3240
:102830009143084321688860D4E905010843216871
:10284000C96821F0FF0108432168C860206800685A
:1028500040F001002168086000202064202084F8F6
:102860003D000020206384F83E0000BF24E7000004
:10287000A086010080841E0000093D0040420F0038
:102880002DE9FC5F04460F4690469946DDE90CAB06
:102890000E9EFFF707FF054694F83D00202870D1F3
:1028A00019230122B0492046009502F05FFB10B1C8
:1028B0000220BDE8FC9F00BF94F83C00012801D134
:1028C0000220F6E7012084F83C0000BF2068006881
:1028D00000F0010028B92068006840F0010021687C
:1028E00008602068006820F40060216808602220E9
:1028F00084F83D00402084F83E0000202064C4F8A5
:1029000024A0A4F82AB0608D20859848E0624B4648
:10291000424639462046CDE9006502F0D9F908B1B2
:102920000120C6E7208D88B900BF002001902068F3
:102930004069019020688069019000BF00BF206855
:10294000006840F400702168086040E0208D012894
:1029500018D12068006820F480602168086000BFFA
:1029600000200190206840690190206880690190F2
:1029700000BF00BF2068006840F400702168086054
:1029800025E0EFE0208D022816D12068006820F4B1
:102990008060216808602068006840F40060216859
:1029A000086000BF00200190206840690190206805
:1029B0008069019000BF0AE000BF002001902068FC
:1029C0004069019020688069019000BF00BFBAE0B3
:1029D000208D03287ED8208D012815D12A46314626
:1029E000204602F068FB08B1012062E72068006918
:1029F000616A0870606A401C6062208D401E2085FC
:102A0000608D401E60859EE0208D02282AD13346CD
:102A1000002257492046009502F0A8FA08B101208B
:102A200047E72068006840F400702168086020686B
:102A30000069616A0870606A401C6062208D401EF7
:102A40002085608D401E608520680069616A08707D
:102A5000606A401C6062208D401E2085608D401E93
:102A6000608570E03346002241492046009502F01F
:102A70007DFA08B101201CE72068006820F480601E
:102A80002168086020680069616A0870606A401CFB
:102A90006062208D401E2085608D401E608533461B
:102AA000002233492046009502F060FA08B1012067
:102AB000FFE62068006840F4007021680860206824
:102AC0000069616A0870606A401C6062208D401E67
:102AD000208500E010E0608D401E60852068006960
:102AE000616A0870606A401C6062208D401E20850B
:102AF000608D401E608526E02A463146204602F061
:102B0000DAFA08B10120D4E620680069616A087029
:102B1000606A401C6062208D401E2085608D401ED2
:102B2000608520684069C0F3800060B1206800695A
:102B3000616A0870606A401C6062208D401E2085BA
:102B4000608D401E6085208D00287FF441AF2020DD
:102B500084F83D00002084F83E0000BF84F83C006B
:102B600000BFA6E60220A4E6020010000000FFFF5E
:102B7000040001002DE9FC5F04460F46904699468B
:102B8000DDE90CAB0E9EFFF78DFD054694F83D0088
:102B900020287DD1192301224D492046009502F0BD
:102BA000E5F910B10220BDE8FC9F00BF94F83C009D
:102BB000012801D10220F6E7012084F83C0000BF83
:102BC0002068006800F0010028B92068006840F023
:102BD0000100216808602068006820F40060216816
:102BE0000860212084F83D00402084F83E00002049
:102BF0002064C4F824A0A4F82AB0608D208535484C
:102C0000E0624B46424639462046CDE9006502F077
:102C10000FF908B10120C6E731E02A4631462046C7
:102C200002F089FA50B1206C042805D120680068B0
:102C300040F40070216808600120B4E7606A007801
:102C400021680861606A401C6062208D401E2085FA
:102C5000608D401E608520684069C0F3800070B1BF
:102C6000208D60B1606A007821680861606A401C4C
:102C70006062208D401E2085608D401E6085208D05
:102C80000028CAD12A463146204602F041F900E028
:102C90001CE050B1206C042805D12068006840F485
:102CA00000702168086001207DE72068006840F41A
:102CB000007021680860202084F83D00002084F81E
:102CC0003E0000BF84F83C0000BF6CE702206AE7CA
:102CD000020010000000FFFF10B586B0044614216A
:102CE00001A8FDF7B9FA4449206888422FD100BFF6
:102CF000002000904148006840F020003F490860F3
:102D00000846006800F02000009000BF00BF0320CC
:102D100001901220029001200390032004900420CF
:102D2000059001A93648FFF7ADFB00BF00200090D9
:102D300032481030006840F480003049103108609B
:102D40000846006800F48000009000BF51E02D4963
:102D5000206888424DD100BF0020009027480068BD
:102D600040F00400254908600846006800F00400AF
:102D7000009000BF00BF00BF002000900846006820
:102D800040F0010008600846006800F00100009073
:102D900000BF00BF4815019012200290012003904F
:102DA000032004900420059001A91748FFF76AFB4F
:102DB0004FF48070019012200290012003900320B4
:102DC00004900420059001A91048FFF75BFB00BFA9
:102DD0000020009009481030006840F400000749C6
:102DE000103108600846006800F40000009000BF41
:102DF00000BF06B010BD000000580040303802404F
:102E000000140240005C0040000802400000024044
:102E1000034800680349097808440149086070477D
:102E2000100000201800002010B50D48006840F484
:102E300000700B4908600846006840F48060086034
:102E40000846006840F480700860032000F0A2F893
:102E5000002000F007F800F02BF8002010BD000063
:102E6000003C024070B504460E4800784FF47A7179
:102E7000B1FBF0F00C490968B1FBF0F5284600F011
:102E800018FE08B1012070BD102C07D20022214687
:102E9000501E00F041F80548046001E00120F2E70F
:102EA0000020F0E7180000201C0000201400002083
:102EB00008B500BF002000900E48006840F4804034
:102EC0000C4908600846006800F48040009000BF8C
:102ED00000BF00BF00200090081F006840F0805035
:102EE000091F08600846006800F08050009000BF8D
:102EF00000BF08BD4438024001460846002809DBEF
:102F000000F01F0301229A4043099B0003F1E023D4
:102F1000C3F8002100BF70472DE9F05F80460D46E1
:102F20001646002704F07EFE074639462A463346F9
:102F300001F00700C0F1070ABAF1040F02D94FF0FF
:102F4000040A01E0C0F1070AD14600F1040ABAF10F
:102F5000070F02D24FF0000A01E0A0F1030AD446A5
:102F60004FF0010A0AFA09FAAAF1010A0AEA020A6A
:102F70000AFA0CFA4FF0010B0BFA0CFBABF1010B48
:102F80000BEA030B4AEA0B042146404604F052FECA
:102F9000BDE8F09F00BF00F00702064B19684FF62E
:102FA000FF031940044B0B4343EA0221014B196014
:102FB00000BF70470CED00E00000FA0570B5044654
:102FC0000D460CB9012070BD5848006800F00F0094
:102FD000A84209D255490D700846006800F00F005C
:102FE000A84201D00120EEE7207800F0020002287C
:102FF0001DD1207800F00400042805D14C48006859
:1030000040F4E0504A490860207800F008000828A1
:1030100005D14748006840F460404549086044488D
:10302000006820F0F000A16808434149086020785A
:1030300000F00100A8B36068012807D13C480838B7
:103040000068C0F34040B8B90120BCE760680228BE
:1030500002D06068032807D1354808380068C0F3FB
:10306000406048B90120AEE7314808380068C0F335
:10307000400008B90120A6E72D48006820F00300B1
:10308000616808432A490860FFF70CFB064609E01F
:10309000FFF708FB801B41F28831884202D90320E8
:1030A00091E707E02248006800F00C006168B0EB8F
:1030B000810FEDD11D48006800F00F00A84209D92A
:1030C0001A490D700846006800F00F00A84201D0B0
:1030D000012078E7207800F00400042807D1144884
:1030E000006820F4E050E168084311490860207846
:1030F00000F00800082808D10D48006820F460405E
:10310000216940EAC1000A49086000F03FF8084917
:103110000968C1F30311074A515CC84006490860B9
:1031200006480068FFF79EFE00204CE7003C024086
:10313000083802408E9100081C0000201400002076
:1031400001480068704700001C00002000B5FFF730
:10315000F7FF04490968C1F38221034A515CC84062
:1031600000BD0000083802409E91000800B5FFF73E
:10317000E7FF04490968C1F34231034A515CC84082
:1031800000BD0000083802409E9100082DE9F0477C
:10319000002400250026A1462548006800F00C0008
:1031A00020B1042805D008283AD105E0DFF8849042
:1031B00039E0DFF8849036E01D48001F006800F019
:1031C0003F041B48001F006800F4800078B11A48D3
:1031D0001749091F0968C1F38811A0FB0170014656
:1031E000224600233846FCF7EDFF05460EE0114865
:1031F0000F49091F0968C1F38811A0FB017001463E
:10320000224600233846FCF7DDFF05460848001F2C
:103210000068C0F30140401C4600B5FBF6F902E02F
:10322000DFF8109000BF00BF4846BDE8F0870000FF
:10323000083802400024F400001BB700F8B504462B
:103240000CB90120F8BD207800F00100002874D0EE
:10325000F948006800F00C0004280DD0F64800681A
:1032600000F00C00082813D1F348001F006800F498
:103270008000B0F5800F0BD1EF4808380068C0F32C
:103280004040002859D06068002856D10120D9E775
:1032900000BF6068B0F5803F08D1E7480838006893
:1032A00040F48030E449083908601EE06068B0F5F9
:1032B000A02F0DD1E0480838006840F48020DE4996
:1032C000083908600846006840F4803008600CE067
:1032D000D9480838006820F48030D7490839086098
:1032E0000846006820F48020086000BF606890B144
:1032F000FFF7D8F9054606E0FFF7D4F9401B64282C
:1033000001D903209EE7CC4808380068C0F340404C
:103310000028F1D011E0FFF7C5F9054606E0FFF7F8
:10332000C1F9401B642801D903208BE7C248083843
:103330000068C0F340400028F1D1207800F002007E
:1033400002285FD1BC48006800F00C0058B1BA48B0
:10335000006800F00C0008281CD1B748001F006866
:1033600000F48000B0B9B44808380068C0F34000E9
:1033700020B1E068012801D0012063E7AE48083899
:10338000006820F0F800216940EAC100AA49083924
:10339000086037E0E06800B30120A8490860FFF743
:1033A00081F9054606E0FFF77DF9401B022801D9A7
:1033B000032047E7A04808380068C0F34000002811
:1033C000F1D09D480838006820F0F800216940EAF3
:1033D000C10099490839086014E000209749086045
:1033E000FFF760F9054606E0FFF75CF9401B02288D
:1033F00001D9032026E7904808380068C0F3400050
:103400000028F1D1207800F0080008282CD160694C
:10341000A8B101208A490860FFF744F9054606E093
:10342000FFF740F9401B022801D903200AE7824830
:103430006C300068C0F340000028F1D014E0002098
:103440007F490860FFF72EF9054606E0FFF72AF9E5
:10345000401B022801D90320F4E677486C3000684D
:10346000C0F340000028F1D1207800F004000428C7
:1034700070D1002770483830006800F0805090B953
:1034800000BF002000906C483830006840F0805049
:103490006949383108600846006800F080500090A3
:1034A00000BF00BF01276748006800F48070B0B912
:1034B0006448006840F4807062490860FFF7F2F8E1
:1034C000054606E0FFF7EEF8401B022801D903206D
:1034D000B8E65C48006800F480700028F2D000BFB5
:1034E000A068012808D154486830006840F0010005
:1034F0005149683108601DE0A06805280DD14E488B
:103500006830006840F004004B49683108600846A4
:10351000006840F0010008600CE04748683000682F
:1035200020F001004449683108600846006820F036
:103530000400086000BFA068A8B1FFF7B3F8054613
:1035400009E0FFF7AFF8401B41F28831884202D909
:10355000032077E626E0384868300068C0F3400072
:103560000028EED013E0FFF79DF8054608E0FFF7CE
:1035700099F8401B41F28831884201D9032061E665
:103580002D4868300068C0F340000028EFD1012FBB
:1035900007D129483830006820F08050264938315A
:1035A000086000BFA069002845D02348006800F0EB
:1035B0000C0008285DD0A069022845D100201F49D1
:1035C0000866FFF76FF8054606E0FFF76BF8401B4B
:1035D000022801D9032035E6174808380068C0F3EF
:1035E00040600028F1D1D4E907010843616A40EA4C
:1035F00081110122A06AC2EB500041EA00412C2057
:10360000005D41EA00600C49091F086001200B4978
:103610000866FFF747F8054606E0FFF743F8401B4A
:10362000022801D903200DE6034808380068C0F3DA
:1036300040600028F1D03FE00838024000004742D7
:10364000800E47420070004000201C490866FFF7CA
:1036500029F8054606E0FFF725F8401B022801D9A6
:103660000320EFE516480068C0F340600028F2D15F
:1036700022E0A069012800D1E4E51148001D066898
:1036800006F48001E069814214D106F03F01206A0E
:1036900081420FD147F6C0703040616A884209D13B
:1036A00006F44031A06A814204D106F07061E06AFC
:1036B000814201D00120C5E50020C3E5000047425A
:1036C0000038024010B504460CB9012010BD606AF4
:1036D00000B900BF0021A16294F8510028B9002070
:1036E00084F85000204600F033F8022084F851009E
:1036F0002068006820F0400021680860D4E90101DA
:103700000843E16808432169084361690843218B44
:1037100001F400710843E1690843216A0843A16A82
:103720000843216808600421A06901EA1040616A29
:103730000843216848602068C06920F4006021685F
:10374000C86100206065012084F851000020BDE7B9
:1037500010B586B00446142101A8FCF77DFD45494B
:10376000206888424DD100BF002000904248006888
:1037700040F48050404908600846006800F48050DA
:10378000009000BF00BF00BF002000903A481438EE
:10379000006840F0020038491439086008460068A3
:1037A00000F00200009000BF00BF00BF00200090AA
:1037B0000846006840F0010008600846006800F014
:1037C0000100009000BF00BF18200190022002906D
:1037D00000200390032004900520059001A92748AC
:1037E000FEF750FE802001900220029000200390FE
:1037F000032004900520059001A92148FEF742FE10
:1038000036E020492068884232D100BF0020009075
:103810001948001F006840F480401749091F0860DC
:103820000846006800F48040009000BF00BF00BF61
:103830000020009010481438006840F002000E4943
:10384000143908600846006800F00200009000BFCC
:1038500000BF4FF4604001900220029000200390CE
:10386000032004900520059001A90448FEF70AFEF4
:1038700006B010BD00300140443802400004024050
:1038800000000240003800402DE9FF5F04468846F2
:1038900091461D460E9E012002900020019000BF1F
:1038A00094F85000012803D1022004B0BDE8F09F35
:1038B000012084F8500000BFFEF7F4FE074694F89C
:1038C00051B060680390AA46BBF1010F0BD003987A
:1038D000B0F5827F04D1A06810B9BBF1040F02D00B
:1038E00002200190DBE0B8F1000F03D0B9F1000F26
:1038F00000D015B901200190D1E094F851000428BE
:1039000002D0052084F8510000206065C4F838908A
:10391000E587A587C4F83080E586A58620646064C5
:103920002068006800F04000402805D0206800684A
:1039300040F0400021680860E068B0F5006F4AD1AF
:10394000606810B1BAF1010F09D1206B00882168BD
:10395000C860206B801C2063E08E401EE08633E050
:103960002068806800F00200022810D1E08E70B15B
:10397000029801280BD1206B00882168C860206B59
:10398000801C2063E08E401EE086002002902068AC
:10399000806800F0010068B1E08F58B12068C0680D
:1039A000A16B0880A06B801CA063E08F401EE087A5
:1039B00001200290FEF776FEC01BB04204D3701CBB
:1039C00010B1032001906AE0E08E0028C8D1E08F9A
:1039D0000028C5D14AE0606810B1BAF1010F09D1E1
:1039E000206B007821680873206B401C2063E08EF8
:1039F000401EE08634E02068806800F00200022863
:103A000010D1E08E70B1029801280BD1206B0078A4
:103A100021680873206B401C2063E08E401EE08606
:103A2000002002902068806800F0010068B1E08FFB
:103A300058B12068C068A16B0870A06B401CA063DF
:103A4000E08F401EE08701200290FEF72BFEC01B96
:103A5000B04201D3701C00B916B9032001901EE0DA
:103A6000E08E0028C7D1E08F0028C4D13A46314605
:103A7000204603F0E1F920B101200190202060658B
:103A80000DE0A06850B900BF002000902068C06819
:103A9000009020688068009000BF00BF00BF012038
:103AA00084F8510000BF002084F8500000BF019846
:103AB000FBE670B504462546681EB0F1807F01D351
:103AC00001200FE0681E4FF0E02148610F214FF008
:103AD000FF3004F0AFF800204FF0E02188610720AC
:103AE0000861002070BD7047704710B50346002282
:103AF00000BF93F83C00012801D1022010BD012035
:103B000083F83C0000BF22F0FF00CC6840EA0402CA
:103B100022F440708C6840EA040222F480604C6811
:103B200040EA040222F400600C6840EA040222F435
:103B300080500C6940EA040222F400504C6940EACB
:103B4000040222F48040CC6940EA0402186842640E
:103B500000BF002083F83C0000BF00BFCEE700009C
:103B600030B502460B4600BF92F83C00012801D157
:103B7000022030BD012082F83C0000BF022082F804
:103B80003D00106844681068816824F0700418686B
:103B9000044310684460184D1068A8421BD0106898
:103BA000B0F1804F17D0154D1068A84213D0144DB6
:103BB0001068A8420FD0134D1068A8420BD0124DC8
:103BC0001068A84207D0114D1068A84203D0104DCC
:103BD0001068A84205D121F080015868014310689F
:103BE0008160012082F83D0000BF002082F83C0087
:103BF00000BF00BFBDE7000000000140000400401E
:103C000000080040000C004000040140004001405A
:103C10000018004010B504460CB9012010BD94F8FE
:103C20003D0028B9002084F83C00204600F00CF844
:103C3000022084F83D00211D206803F085FA012050
:103C400084F83D000020E9E738B50446AA49206819
:103C5000884220D100BF00200090A848006840F0B2
:103C60000100A64908600846006800F001000090C5
:103C700000BF00BF002211461820FFF74DF91820A1
:103C8000FFF73AF9002211461A20FFF745F91A20EA
:103C9000FFF732F92FE12068B0F1804F11D100BF5A
:103CA000002000909548001F006840F001009349F3
:103CB000091F08600846006800F00100009000BF7E
:103CC00019E18F49206888421AD100BF0020009076
:103CD0008A48001F006840F002008849091F0860F8
:103CE0000846006800F00200009000BF00BF0022FC
:103CF00011461D20FFF710F91D20FFF7FDF8FAE02F
:103D000080492068884211D100BF002000907B4884
:103D1000001F006840F004007849091F0860084649
:103D2000006800F00400009000BFE4E076492068DD
:103D3000884211D100BF002000907048001F006829
:103D400040F008006D49091F08600846006800F04F
:103D50000800009000BFCEE06C49206888421AD16C
:103D600000BF002000906548001F006840F0100070
:103D70006249091F08600846006800F010000090C2
:103D800000BF00BF002211463620FFF7C5F83620DD
:103D9000FFF7B2F8AFE05E49206888421AD100BF51
:103DA000002000905548001F006840F02000534953
:103DB000091F08600846006800F02000009000BF5E
:103DC00000BF002211463720FFF7A6F83720FFF783
:103DD00093F890E04F492068884220D100BF00202E
:103DE00000904648006840F00200444908600846D8
:103DF000006800F00200009000BF00BF00221146E2
:103E00002B20FFF789F82B20FFF776F800221146C8
:103E10002D20FFF781F82D20FFF76EF86BE03E496B
:103E20002068884218D100BF002000903348006805
:103E300040F48030314908600846006800F4803062
:103E4000009000BF00BF002211461820FFF764F861
:103E50001820FFF751F84EE03049206888420FD112
:103E600000BF002000902548006840F4003023493E
:103E700008600846006800F40030009000BF3AE097
:103E800027492068884218D100BF002000901B48B5
:103E9000006840F48020194908600846006800F472
:103EA0008020009000BF00BF002211461A20FFF7BB
:103EB00033F81A20FFF720F81DE01A4920688842DD
:103EC00019D100BF002000900C48001F006840F08E
:103ED00040000A49091F08600846006800F04000D9
:103EE000009000BF00BF002211462B20FFF714F8FE
:103EF0002B20FFF701F838BD000001404438024094
:103F00000004004000080040000C00400010004089
:103F10000014004000040140004001400044014002
:103F200000480140001800400146022081F83D0091
:103F30000868806800F00702062A05D00868006853
:103F400040F001000B681860012081F83D0000205E
:103F5000704701460868C06840F001000B68D860EF
:103F60000868806800F00702062A05D00868006823
:103F700040F001000B681860002070472DE9F04107
:103F800004460D4600BF94F83C00012802D10220EF
:103F9000BDE8F081012084F83C0000BF022084F8D5
:103FA0003D002068866826F0770626F47F46206864
:103FB00086602868502833D00CDC202850D004DCE0
:103FC00000284BD0102851D149E0302849D0402852
:103FD0004CD139E060282DD0702807D0B0F5805F33
:103FE00003D0B0F5005F41D10DE040E0D5E9021308
:103FF0006A68206803F025F92068866846F077062D
:104000002068866033E0D5E902136A68206803F00F
:1040100018F92068806840F480402168886026E0B4
:10402000EA686968206803F0FDF95021206803F010
:1040300013F91CE0EA686968206803F006FA602159
:10404000206803F009F912E0EA686968206803F063
:10405000E9F94021206803F0FFF808E000BF00BF45
:1040600000BF2968206803F0F7F800E000BF00BF38
:10407000012084F83D0000BF002084F83C0000BF10
:1040800000BF85E7704710B5044620680069C0F39B
:104090004000D8B12068C068C0F34000B0B16FF0F4
:1040A000020021680861012020772068806900F003
:1040B000030018B12046FFF7E5FF05E0204600F0B9
:1040C0006FF9204600F00CFA002020772068006984
:1040D000C0F38000D8B12068C068C0F38000B0B1E0
:1040E0006FF0040021680861022020772068806951
:1040F00000F4407018B12046FFF7C4FF05E02046E9
:1041000000F04EF9204600F0EBF9002020772068FF
:104110000069C0F3C000D8B12068C068C0F3C00017
:10412000B0B16FF008002168086104202077206892
:10413000C06900F0030018B12046FFF7A3FF05E0B7
:10414000204600F02DF9204600F0CAF90020207723
:1041500020680069C0F30010D8B12068C068C0F3BF
:104160000010B0B16FF010002168086108202077BE
:104170002068C06900F4407018B12046FFF782FF44
:1041800005E0204600F00CF9204600F0A9F90020D7
:1041900020772068006900F0010058B12068C068ED
:1041A00000F0010030B16FF0010021680861204685
:1041B00000F0C4F920680069C0F3C01058B120684D
:1041C000C068C0F3C01030B16FF080002168086192
:1041D0002046FFF788FC20680069C0F3801058B1C2
:1041E0002068C068C0F3801030B16FF040002168D3
:1041F0000861204600F07CFA20680069C0F3401096
:1042000058B12068C068C0F3401030B16FF0200092
:10421000216808612046FFF767FC10BD10B586B025
:104220000446142101A8FCF717F853492068884276
:104230001ED100BF002000905048006840F01000E0
:104240004E4908600846006800F01000009000BF6A
:1042500000BF4FF4D4400190022002900020039050
:1042600004900120059001A94548FEF70BF981E073
:104270004449206888421ED100BF002000903F487A
:10428000006840F008003D4908600846006800F0FA
:104290000800009000BF00BF4FF480400190022052
:1042A00002900020039004900220059001A9364856
:1042B000FEF7E8F85EE035492068884239D100BF52
:1042C000002000902D48006840F480702B49086061
:1042D0000846006800F48070009000BF00BF00BF77
:1042E000002000900846006840F00400086008467E
:1042F000006800F00400009000BF00BFC0200190E3
:10430000022002900020039004900320059001A950
:104310001F48FEF7B7F840200190022002900020CD
:10432000039004900320059001A91A48FEF7AAF80B
:1043300020E01949206888421CD100BF002000906D
:104340000E48006840F020000C49086008460068EC
:1043500000F02000009000BF00BF4020019002202C
:1043600002900020039004900320059001A90B48BF
:10437000FEF788F806B010BD00000140303802405A
:104380000010024000080040000C02400004014000
:104390000020024000080240004401400014024096
:1043A000704770B504460D46164600BF94F83C00B1
:1043B000012801D1022070BD012084F83C0000BF1B
:1043C000022084F83D0036B1042E1BD0082E31D0D7
:1043D0000C2E5ED145E02946206802F047FF206898
:1043E000806940F00800216888612068806920F0B9
:1043F0000400216888612068806929690843216870
:10440000886147E02946206802F068FF20688069DB
:1044100040F40060216888612068806920F4806031
:104420002168886120688069296940EA0120216843
:1044300088612FE02946206802F08EFF2068C0695D
:1044400040F008002168C8612068C06920F00400BD
:104450002168C8612068C069296908432168C8616A
:1044600018E02946206802F0B3FF2068C06940F4D4
:1044700000602168C8612068C06920F480602168FC
:10448000C8612068C069296940EA01202168C861C3
:1044900000E000BF00BF012084F83D0000BF002005
:1044A00084F83C0000BF00BF85E710B504460CB996
:1044B000012010BD94F83D0028B9002084F83C008C
:1044C000204600F00CF8022084F83D00211D2068F1
:1044D00002F03AFE012084F83D000020E9E7704731
:1044E0007047000070B504460E4601223146206830
:1044F00002F096FE0F492068884203D00E492068DA
:10450000884201D1012000E0002028B12068406CE1
:1045100040F40040216848642068806800F0070586
:10452000062D05D02068006840F001002168086071
:10453000002070BD000001400004014070B5044639
:10454000584884420ED158480078012803D0574873
:1045500004F048FDA5E000231A4619461846FCF76A
:10456000D1FA9EE05248844210D14F480078012889
:1045700007D04E4AB2F90A10B2F9080004F094FDCF
:104580008FE000210846FCF7D1FA8AE049488442CE
:1045900011D145480078012807D0444AB2F90E10DD
:1045A000B2F90C0004F0C8FC7BE000221146104672
:1045B000FCF796FA75E04048844208D13A48007802
:1045C00001286ED03849394804F0C6FB69E03B4801
:1045D000844237D1FCF744FA394890ED000ADFED08
:1045E000390A20EE200ABDEEC00A10EE101A364835
:1045F00001F096FF85B2354800684563324880680F
:10460000002802DB3048806802E02F488068404282
:10461000C8280BDA00224FF480512D48FEF73BF8F2
:104620004FF400612A48FEF72DF83AE000224FF4DB
:1046300000612748FEF72FF84FF480512448FEF719
:1046400021F82EE0234884422BD12348007801280A
:1046500004D10D21214802F011FB22E01E48007810
:104660000B2804D106211E4802F066FB19E01A4807
:1046700000780C2804D106211A4802F05DFB10E0F6
:1046800015480078152804D10621174802F054FB7C
:1046900007E011480078162803D10621134802F0DC
:1046A0004BFB70BD8C0300201A13002084130020E4
:1046B0004C0400208C0400208C0500200C050020F8
:1046C000880000200000C842D41200204C050020C1
:1046D000001C0240CC050020200000204C000020DF
:1046E000660000206C00002072000020780000208E
:1046F000704770472DE9F047044620680568206838
:10470000C668206847694FF00008C14605F00F08E9
:10471000B8F1000F0AD105F0200038B106F02000F2
:1047200020B1204602F0CFFEBDE8F087B8F1000FBF
:1047300072D007F0010018B906F4907000286BD011
:1047400005F0010030B106F4807018B1E06B40F064
:104750000100E06305F0040030B107F0010018B17A
:10476000E06B40F00200E06305F0020030B107F0BA
:10477000010018B1E06B40F00400E06305F00800B0
:1047800048B106F0200010B907F0010018B1E06B45
:1047900040F00800E063E06B70B305F0200028B142
:1047A00006F0200010B1204602F08DFE206840691E
:1047B000C0F38019E06B00F0080010B9B9F1000FE8
:1047C00023D0204602F05FFE2068406900F04000E0
:1047D000402816D12068406920F0400021684861D7
:1047E000606B50B11748616B0865606BFDF793FB18
:1047F00010B1606B016D88470CE02046FFF779FF30
:1048000008E02046FFF775FF04E02046FFF771FF40
:104810000020E06388E7FFE705F0800030B106F094
:10482000800018B1204603F095F87DE705F04000C0
:1048300030B106F0400018B1204602F034FE73E7B4
:1048400000BF71E77374000810B504460CB901206D
:1048500010BDA06900B100E000BF94F8390028B98C
:10486000002084F83800204600F028F8242084F83E
:1048700039002068C06820F400502168C8602046D4
:1048800002F074FE2068006920F4904021680861FD
:104890002068406920F02A00216848612068C068CB
:1048A00040F400502168C8600020E063202084F8B4
:1048B000390084F83A000020CAE7000010B586B03D
:1048C0000446142101A8FBF7C7FCC94920688842A7
:1048D0007ED100BF00200090C648006840F0100064
:1048E000C44908600846006800F01000009000BF4E
:1048F00000BF00BF00200090BE481438006840F0A0
:104900000200BC49143908600846006800F0020043
:10491000009000BF00BF00BF002000900846006864
:1049200040F0010008600846006800F001000090B7
:1049300000BF00BF80200190022002900020039061
:10494000032004900720059001A9AB48FDF79AFDCC
:104950004FF4007001900220029000200390032089
:1049600004900720059001A9A448FDF78BFDA448F9
:10497000A44908604FF0006048600021A1488160B0
:10498000C1604FF4806101610021416181614FF498
:104990008071C1614FF44031016200214162FDF735
:1049A000EFFB08B1FCF7A0F900BF96486063846391
:1049B00000BF002211462520FEF7AEFA2520FEF7A3
:1049C0009BFA91480068406940F040008E4900E041
:1049D00035E0096848618C480068C06840F0100004
:1049E00089490968C8608248001D8649096888604D
:1049F000864884490968C86000F580608149096873
:104A0000086180480068006840F480207D4909689A
:104A100008607C480068006820F400207949096833
:104A200008604FF4806077490968486075480068FD
:104A3000006840F00100734909680860D5E07449D6
:104A4000206888427DD100BF002000906948001F87
:104A5000006840F480206749091F08600846006824
:104A600000F48020009000BF00BF00BF0020009035
:104A700060481438006840F004005E49143908604A
:104A80000846006800F00400009000BF00BF4FF42B
:104A900040600190022002900020039003200490C7
:104AA0000720059001A95B48FDF7ECFC5A485B49DB
:104AB00008604FF000604860002158488160C16084
:104AC0004FF4806101610021416181614FF4807187
:104AD000C1614FF44031016200214162FDF750FB9A
:104AE00008B1FCF701F900BF4C486063846300BF64
:104AF000002211462720FEF70FFA2720FEF7FCF9C7
:104B000047480068406940F04000454909684861ED
:104B100043480068C06840F0100041490968C86017
:104B20003B48001D3D49096888603E483B4909688B
:104B3000C860402039490968486038480068006802
:104B400000E005E040F001003449096808604CE0ED
:104B500035492068884248D100BF00200090254890
:104B6000006840F02000234908600846006800F013
:104B70002000009000BF00BF00BF002000901D4833
:104B80001438006840F040001A491439086008469B
:104B9000006800F04000009000BF00BF4FF4844068
:104BA000019002200290002003900320049008202E
:104BB000059001A91D48FDF765FC0022114647201C
:104BC000FEF7AAF94720FEF797F919480068C06870
:104BD00040F0200016490968C86015480068C068A0
:104BE00040F0100012490968C86006B010BD00000E
:104BF000001001404438024000040240000002401E
:104C0000406402400C0F00204C0E00204C06002097
:104C10000048004000080240286002406C0F00205D
:104C20008C0E00200C0600200014014000180240E9
:104C3000CC0E00207047704700BFFEE701460868B1
:104C40004069C0F38020B0B16FF480600A685061A1
:104C500000200863202081F83D00002081F83E00FC
:104C6000086C40F00400086400BF002081F83C009C
:104C700000BF012070470020FCE70000FEB504469D
:104C80000D4616461F460A20610001232A46CDE93B
:104C9000006702900148FDF7F3FDFEBD0802002009
:104CA0007FB504460D46002003900A20012103AA87
:104CB000CDE900210290610001232A460348FDF757
:104CC000DFFD9DF80C0004B070BD0000080200205C
:104CD0002DE9F84304460F4615469946DDE9088656
:104CE0002068006840F480602168086020680068DF
:104CF00040F4807021680860434600224FF00111A3
:104D00002046009600F032F960B12068006800F497
:104D10008070B0F5807F02D14FF4007020640320D2
:104D2000BDE8F88307F0FE0021680861334642467B
:104D30003E49204600F05DF908B10120F0E700BFD0
:104D400000200090206840690090206880690090F1
:104D500000BF00BF32464146204600F0ECF950B19A
:104D6000206C042805D12068006840F40070216898
:104D700008600120D4E7B9F1010F03D1E8B221683E
:104D8000086117E0C5F307202168086132464146F3
:104D9000204600F0D0F950B1206C042805D12068DD
:104DA000006840F40070216808600120B8E7E8B2AC
:104DB0002168086132464146204600F0BCF950B1F6
:104DC000206C042805D12068006840F40070216838
:104DD00008600120A4E72068006840F48070216822
:104DE0000860434600224FF001112046009600F073
:104DF000BDF858B12068006800F48070B0F5807F7D
:104E000002D14FF400702064032089E7F8B240F02B
:104E1000010021680861334642460449204600F0FB
:104E2000E8F808B101207BE7002079E702000100E3
:104E30002DE9F8430446884615469946DDE908679A
:104E40002068006840F480702168086033460022C2
:104E50004FF001112046009700F088F860B12068FB
:104E6000006800F48070B0F5807F02D14FF40070CC
:104E700020640320BDE8F88308F0FE002168086183
:104E80003B4632462149204600F0B3F808B10120E4
:104E9000F0E700BF00200090206840690090206883
:104EA0008069009000BF00BF3A463146204600F0BE
:104EB00042F950B1206C042805D12068006840F404
:104EC0000070216808600120D4E7B9F1010F03D117
:104ED000E8B22168086117E0C5F30720216808617E
:104EE0003A463146204600F026F950B1206C04289D
:104EF00005D12068006840F4007021680860012036
:104F0000B8E7E8B2216808610020B3E702000100B9
:104F100070B504460D46164620E02046FFF78EFE8B
:104F200008B1012070BD681CC0B1FDF7BBFB801B40
:104F3000A84200D895B900202063202084F83D00C5
:104F4000002084F83E00206C40F02000206400BF68
:104F5000002084F83C0000BF0120E3E7206840699E
:104F6000C0F380000028D8D00020DBE72DE9F04115
:104F700004460D4617461E46DDF818801CE0701CDE
:104F8000D0B1FDF78FFBA0EB0800B04200D89EB96E
:104F900000202063202084F83D00002084F83E009B
:104FA000206C40F02000206400BF002084F83C000A
:104FB00000BF0120BDE8F081C5F3074001280AD1F8
:104FC00020684069A9B20840A9B2884201D10120F5
:104FD0000BE0002009E020688069A9B20840A9B26E
:104FE000884201D1012000E00020B842C7D0002053
:104FF000E0E72DE9F04104460D4616461F463DE028
:1050000020684069C0F38020E8B12068006840F45F
:105010000070216808606FF480602168486100209A
:105020002063202084F83D00002084F83E00206C9E
:1050300040F00400206400BF002084F83C0000BF62
:105040000120BDE8F081701CC0B1FDF72BFBC01B37
:10505000B04200D896B900202063202084F83D009B
:10506000002084F83E00206C40F02000206400BF47
:10507000002084F83C0000BF0120E2E7C5F30740B0
:1050800001280AD120684069A9B20840A9B2884223
:1050900001D101200BE0002009E020688069A9B25D
:1050A0000840A9B2884201D1012000E00020002878
:1050B000A6D00020C5E770B504460D46164632E07E
:1050C00020684069C0F30010A0B16FF010002168A3
:1050D000486100202063202084F83D00002084F8EF
:1050E0003E00206C206400BF002084F83C0000BF1C
:1050F000012070BDFDF7D6FA801BA84200D895B9F3
:1051000000202063202084F83D00002084F83E0029
:10511000206C40F02000206400BF002084F83C0098
:1051200000BF0120E5E720684069C0F38010002837
:10513000C6D00020DDE770B504460D46164620E0D7
:105140002046FFF77BFD08B1012070BD681CC0B18F
:10515000FDF7A8FA801BA84200D895B9002020636B
:10516000202084F83D00002084F83E00206C40F0B0
:105170002000206400BF002084F83C0000BF012014
:10518000E3E720684069C0F3C0100028D8D00020B1
:10519000DBE7000037B584B004460D460A20012144
:1051A00006AACDE900210290610001232A460248A7
:1051B000FDF7E0FC07B030BD08020020174890ED75
:1051C000000A1748D0ED000A30EE600A154880ED5D
:1051D000000A90ED000ADFED140AB4EEE00AF1EEE9
:1051E00010FA08D290ED000ADFED100A30EE200A26
:1051F00080ED000A11E00B4890ED000ADFED0C0A8B
:10520000B4EEE00AF1EE10FA07DD90ED000ADFEDF2
:10521000070A30EE600A80ED000A7047581000203F
:10522000B0000020B4000020000034C30000B443EC
:105230000000344310B5002240211948FDF72BFA35
:105240006420FDF713F8012240211548FDF723FAE9
:105250006420FDF70BF800210E20FFF721FD044626
:10526000102C04D0012211030E48FDF714FA082275
:105270000B210E20FFF78EFF092241210E20FFF7A0
:1052800089FFC02242210E20FFF784FF0B220A2152
:105290000E20FFF77FFF0A20FCF7E8FF10BD00009B
:1052A00000180240001C024000B52DED028B83B0B7
:1052B000062301AA03210E20FFF7E0FC9DF804005D
:1052C0009DF8051040EA012000B208EE100AB8EE81
:1052D000C80ADFED170A20EE200A164880ED000A02
:1052E0009DF806009DF8071040EA012000B208EE84
:1052F000100AB8EEC80ADFED0E0A20EE200A0D48AB
:1053000080ED010A9DF808009DF8091040EA01208F
:1053100000B208EE100AB8EEC80ADFED050A20EE6A
:10532000200A044880ED020A03B0BDEC028B00BDE8
:105330009A99993E4010002000204DE0002100EB9A
:105340004002C14B03EB0212116000EB400203EB81
:105350000212516000EB400203EB0212916000EB7D
:10536000400203EB0212D16000EB400203EB021299
:10537000116100EB400203EB0212516100EB4002AD
:1053800003EB021291614FF4966100EB400203EBD4
:10539000021291834FF42F7100EB400203EB0212D3
:1053A000D1830A2100EB400203EB0212118441F287
:1053B000883100EB400203EB02125162494200EBDC
:1053C000400203EB02129162002100EB400203EB6A
:1053D0000212D162411CC8B20428AFDB00204DE0AC
:1053E000002100EB4002994B03EB0212116000EB2D
:1053F000400203EB0212516000EB400203EB021289
:10540000916000EB400203EB0212D16000EB40021E
:1054100003EB0212116100EB400203EB0212516137
:1054200000EB400203EB021291614FF4FA6100EBD2
:10543000400203EB021291834FF4967100EB40029D
:1054400003EB0212D1830A2100EB400203EB0212AC
:10545000118447F2305100EB400203EB021251621B
:10546000494200EB400203EB02129162002100EB83
:10547000400203EB0212D162411CC8B20228AFDB2A
:1054800000204DE0002100EB4002714B03EB0212C3
:10549000116000EB400203EB0212516000EB40028E
:1054A00003EB0212916000EB400203EB0212D160A9
:1054B00000EB400203EB0212116100EB400203EB30
:1054C0000212516100EB400203EB021291614FF4B2
:1054D000FA6100EB400203EB0212918340F2DC51CF
:1054E00000EB400203EB0212D1831E2100EB4002CD
:1054F00003EB021211844FF4804100EB400203EBF6
:1055000002125162494200EB400203EB0212916227
:10551000002100EB400203EB0212D162411CC8B231
:105520000228AFDB00214A4A1166002248494A6638
:105530008A66CA660A674A678A674FF44872A1F8A2
:105540007C204FF49672A1F87E200A22A1F88020D8
:1055500042F21072C1F884205242C1F88820002221
:10556000C1F88C2000213B4A116051609160D160EC
:105570001161516191614FF4167191830A21D183B8
:105580000521118441F270715162494291620021FA
:10559000D162314A116051609160D16011615161F5
:1055A00091614FF4167191830A21D18305211184F1
:1055B00041F270715162494291620021D162274AE1
:1055C000116051609160D1601161516191614FF43E
:1055D000167191831E21D183022111844FF46161E0
:1055E0005162494291620021D1621D4A11605160AD
:1055F0009160D1601161516191610A21918305210E
:10560000D183002111844FF4257151624942916286
:105610000021D16241F29411124A116000215160BF
:105620009160D1601161516191614FF44871918332
:105630004FF4FA71D183002111844FF47A715162D1
:1056400000219162D1627047641000202411002073
:105650008411002014120020441200207412002033
:10566000A4120020D41200201FB500200090019049
:10567000029003901548164908604FF48030486046
:105680000021134881600161017680F82010C16219
:10569000104981620021C1600121C161002180F8AF
:1056A000301001214161FBF76DFD08B1FBF71CFBD8
:1056B00011200090012001900020029069460448CA
:1056C000FBF796FC08B1FBF70FFB1FBD0020014064
:1056D000C40000200100000F1FB5002000900190C1
:1056E000029003901548164908604FF480304860D6
:1056F0000021134881600161017680F82010C162A9
:10570000104981620021C1600121C161002180F83E
:10571000301001214161FBF735FD08B1FBF7E4FAD8
:105720000820009001200190002002906946044862
:10573000FBF75EFC08B1FBF7D7FA1FBD0022014062
:105740000C0100200100000F10B50E480E49086042
:105750000320486000210C488160C1604FF4102193
:1057600001614FF40011416100210176417681769B
:10577000C17601774177FCF7C6F908B1FBF7B4FAB7
:1057800010BD0000006400406401002010B50E4808
:105790000E4908600320486000210C488160C16008
:1057A0004FF4102101614FF4001141610021017695
:1057B00041768176C17601774177FCF7A4F908B18B
:1057C000FBF792FA10BD0000006800408C01002039
:1057D00008B500BF002000901648006840F4001093
:1057E000144908600846006800F40010009000BFEB
:1057F00000BF00BF002000900846006840F4800011
:1058000008600846006800F48000009000BF00BFF8
:10581000002211460C20FDF77FFB0C20FDF76CFBEE
:10582000002211463A20FDF777FB3A20FDF764FB92
:1058300008BD00003038024000B587B0142102A82E
:10584000FAF70AFD00BF002001908D48006840F083
:1058500002008B4908600846006800F002000190D1
:1058600000BF00BF00BF002001900846006840F064
:10587000400008600846006800F04000019000BF4A
:1058800000BF00BF002001900846006840F0010002
:1058900008600846006800F00100019000BF00BFEA
:1058A00000BF002001900846006840F00800086032
:1058B0000846006800F00800019000BF00BF00BF6C
:1058C000002001900846006840F004000860084687
:1058D000006800F00400019000BF00BF00BF00207E
:1058E00001900846006840F480700860084600682F
:1058F00000F48070019000BF00BF00BF0020019045
:105900000846006840F0200008600846006800F083
:105910002000019000BF00BF00BF0020019008469A
:10592000006840F0800008600846006800F08000D1
:10593000019000BF00BF00BF002001900846006832
:1059400040F0100008600846006800F01000019068
:1059500000BF00BF002289154A48FCF79CFE0122C7
:1059600040214948FCF797FE00224FF4E051474898
:10597000FCF791FE012210214548FCF78CFE012224
:1059800041F201014348FCF786FE4FF4807002901B
:105990000120039000200490059002A93948FCF7EB
:1059A00071FD40200290012003900020049005909A
:1059B00002A93548FCF766FD4FF4E0500290012043
:1059C000039000200490059002A93048FCF75AFD8E
:1059D00008200290304803900120049002A92A4830
:1059E000FCF750FD012002902B480390002004900A
:1059F00002A92748FCF746FD1020029001200390E1
:105A000004900220059002A92148FCF73BFD3020BC
:105A10000290214803900120049002A91948FCF744
:105A200031FD41F201000290012003900490022018
:105A3000059002A91748FCF725FD00221146062013
:105A4000FDF76AFA0620FDF757FA002211460920F1
:105A5000FDF762FA0920FDF74FFA002211460A20ED
:105A6000FDF75AFA0A20FDF747FA002211461720DF
:105A7000FDF752FA1720FDF73FFA07B000BD00000E
:105A8000303802400008024000180240001C02406A
:105A900000000240000402400000211010B50B4835
:105AA0000B4908600B484860002109488160C160CB
:105AB0004FF480410161002141618161C161016256
:105AC000FCF7F6FD08B1FBF70FF910BD00580040D8
:105AD000B4010020801A060010B50B480B4908607D
